:100000000C9463000C942D040C9406040C948B0047
:100010000C948B000C948B000C948B000C948B0034
:100020000C948B000C948B000C948B000C94AC04FF
:100030000C948B000C944C080C948B000C948B004B
:100040000C94BC030C948B000C94DC020C94B60250
:100050000C948B000C948B000C948B000C948B00F4
:100060000C948B000C948B000000000024002700EF
:100070002A0000000000250028002B0000000000DE
:1000800023002600290004040404040404040202DA
:100090000202020203030303030301020408102007
:1000A0004080010204081020010204081020000012
:1000B0000008000201000003040700000000000027
:1000C0000000C70DAB0D11241FBECFEFD8E0DEBF7F
:1000D000CDBF11E0A0E0B1E0EAEFFEE102C0059083
:1000E0000D92A835B107D9F722E0A8E5B1E001C02B
:1000F0001D92AB36B207E1F710E0C2E6D0E004C0D3
:100100002197FE010E94290EC136D107C9F70E942E
:100110002B090C94700F0C9400000895CF92DF927D
:10012000EF92FF920F931F93CF93DF936C017A01AD
:100130008B01C0E0D0E0CE15DF0589F0D8016D91CC
:100140008D01D601ED91FC910190F081E02DC60169
:100150000995892B11F47E0102C02196ECCFC701CD
:10016000DF91CF911F910F91FF90EF90DF90CF9093
:100170000895FC01918D828D981761F0828DDF01C9
:10018000A80FB11D5D968C91928D9F5F9F73928F8A
:1001900090E008958FEF9FEF0895FC01918D828D7F
:1001A000981731F0828DE80FF11D858D90E008954C
:1001B0008FEF9FEF0895FC01918D228D892F90E0A4
:1001C000805C9F4F821B91098F739927089582EA63
:1001D00091E00E94DB0021E0892B09F420E0822FCE
:1001E0000895FC01848DDF01A80FB11DA35ABF4FF4
:1001F0002C91848D90E001968F739927848FA68926
:10020000B7892C93A089B1898C9180648C93938D4C
:10021000848D981306C00288F389E02D80818F7D3C
:1002200080830895EF92FF920F931F93CF93DF93F4
:10023000EC0181E0888F9B8D8C8D981305C0E88937
:10024000F989808185FD24C0F62E0B8D10E00F5FAB
:100250001F4F0F731127E02E8C8DE8120CC00FB6C4
:1002600007FCFACFE889F989808185FFF5CFCE01B7
:100270000E94F100F1CF8B8DFE01E80FF11DE35AD2
:10028000FF4FF0820B8FEA89FB898081806207C073
:10029000EE89FF896083E889F989808180648083A1
:1002A00081E090E0DF91CF911F910F91FF90EF904F
:1002B0000895CF93DF93EC01888D8823C9F0EA89F4
:1002C000FB89808185FD05C0A889B9898C9186FD4F
:1002D0000FC00FB607FCF5CF808185FFF2CFA8894C
:1002E000B9898C9185FFEDCFCE010E94F100E7CF57
:1002F000DF91CF91089580E090E0892B29F00E9452
:10030000E70081110C9400000895CF93DF9390E0F3
:10031000FC01E656FF4F2491FC01EA57FF4F849100
:10032000882361F190E0880F991FFC01E859FF4F85
:10033000C591D491FC01EE58FF4FA591B491611184
:1003400009C09FB7F8948881209582238883EC9117
:100350002E230BC0623061F49FB7F8943881822F4E
:10036000809583238883EC912E2B2C939FBF06C00E
:100370008FB7F894E8812E2B28838FBFDF91CF9120
:1003800008953FB7F8948091650190916601A0911E
:100390006701B091680126B5A89B05C02F3F19F0F1
:1003A0000196A11DB11D3FBFBA2FA92F982F8827F5
:1003B000820F911DA11DB11DBC01CD0142E0660F50
:1003C000771F881F991F4A95D1F708958F929F92A2
:1003D000AF92BF92CF92DF92EF92FF926B017C01BE
:1003E0000E94C1014B015C01C114D104E104F1047C
:1003F000F1F00E94C101DC01CB0188199909AA0919
:10040000BB09883E9340A105B10570F321E0C21AF3
:10041000D108E108F10888EE880E83E0981EA11C3F
:10042000B11CC114D104E104F10419F7DDCFFF9030
:10043000EF90DF90CF90BF90AF909F908F900895F6
:100440002FB7F8946091610170916201809163010E
:10045000909164012FBF08958EBD0DB407FEFDCFAE
:100460008DB58F778DBD08958FEF8EBD0DB407FECE
:10047000FDCF8DB58F778DBD8EB508950F931F93EA
:100480000E94200200915C0110915D0120915E01AB
:1004900030915F01DC01CB01801B910BA20BB30BF0
:1004A0008093580190935901A0935A01B0935B0136
:1004B0000E94200260935C0170935D0180935E0155
:1004C00090935F018AE191E00E94AE05609158012E
:1004D0007091590180915A0190915B0197FF03C07F
:1004E0000E94010603C04AE00E94C00583E291E039
:1004F0000E94AE058091580190915901A0915A0136
:10050000B0915B018D329140A105B10534F083E0DB
:1005100090E09093730180937201809158019091C3
:100520005901A0915A01B0915B0185319540A10517
:10053000B10534F082E090E09093730180937201F2
:100540008091580190915901A0915A01B0915B019D
:10055000893B9B40A105B10524F0109273011092D4
:1005600072011F910F9108950E946B0F1F920F92BD
:100570000FB60F9211242F933F934F935F936F9376
:100580007F938F939F93AF93BF93EF93FF9382EAF1
:1005900091E00E94F100FF91EF91BF91AF919F9187
:1005A0008F917F916F915F914F913F912F910F901C
:1005B0000FBE0F901F9018951F920F920FB60F92BB
:1005C00011242F938F939F93EF93FF93E091B201A8
:1005D000F091B3018081E091B801F091B90182FD01
:1005E00012C090818091BB018F5F8F732091BC01FD
:1005F000821751F0E091BB01F0E0EE55FE4F958F70
:100600008093BB0101C08081FF91EF919F918F91F9
:100610002F910F900FBE0F901F901895833081F08F
:1006200028F4813099F08230A1F008958730A9F044
:100630008830B9F08430D1F4809180008F7D03C080
:10064000809180008F7780938000089584B58F77A4
:1006500002C084B58F7D84BD08958091B0008F77EE
:1006600003C08091B0008F7D8093B00008951F93E8
:10067000CF93DF93282F30E0F901E255FF4F8491AB
:10068000F901E656FF4FD491F901EA57FF4FC491A3
:10069000CC23C9F0162F81110E940E03EC2FF0E03D
:1006A000EE0FFF1FEE58FF4FA591B4918FB7F8944E
:1006B000111105C09C91ED2FE095E92302C0EC914A
:1006C000ED2BEC938FBFDF91CF911F910895DF92B7
:1006D000EF92FF920F931F93CF93DF93C82FD42FE6
:1006E000F52EE62ED72E60E080913F020E94370360
:1006F0000E9420028B010E9434028F3F39F00E9439
:100700002002601B710B6C327140A8F38C2F806447
:100710000E942C028D2D0E942C028E2D0E942C02F4
:100720008F2D0E942C028D2F0E942C02CC2321F0B1
:10073000C83021F08FEF03C085E901C087E80E942F
:100740002C02CC3011F40E943402C4E60E94340220
:100750008F3F11F4C150D1F7DF91CF911F910F91CD
:10076000FF90EF90DF90089561E080913F020E943A
:1007700037038FEF0C942C021F920F920FB60F923B
:1007800011242F933F938F939F93AF93BF938091A7
:10079000610190916201A0916301B0916401309177
:1007A000600123E0230F2D3720F40196A11DB11D18
:1007B00005C026E8230F0296A11DB11D20936001FC
:1007C0008093610190936201A0936301B0936401EF
:1007D0008091650190916601A0916701B0916801D7
:1007E0000196A11DB11D8093650190936601A093B0
:1007F0006701B0936801BF91AF919F918F913F9135
:100800002F910F900FBE0F901F9018951F920F926F
:100810000FB60F9211242F933F934F935F936F93D3
:100820007F938F939F93AF93BF93EF93FF93E09149
:100830000201F09103010995FF91EF91BF91AF91F2
:100840009F918F917F916F915F914F913F912F91E8
:100850000F900FBE0F901F9018951F920F920FB61A
:100860000F9211242F933F934F935F936F937F9336
:100870008F939F93AF93BF93EF93FF93E09100010A
:10088000F09101010995FF91EF91BF91AF919F9177
:100890008F917F916F915F914F913F912F910F9029
:1008A0000FBE0F901F901895FF920F931F93CF9339
:1008B000DF93F42ED52F20916901233039F029E000
:1008C000660F771F881F991F2A95D1F7AB01BC01CE
:1008D00081E10E946703C82F882321F00E94B4039E
:1008E000C9E033C00E9420028B010E9434028F3F76
:1008F00059F40E942002601B710B6D327140A8F305
:100900000E94B403C7E021C08E3F21F00E94B403CF
:10091000C8E01BC08FEF8EBDEF2DFD2FDF01A15072
:10092000BE4F0DB407FEFDCF9EB591938EBDEA1765
:10093000FB07B9F70DB407FEFDCF8EB58C930E946F
:1009400034020E9434020E94B4038C2FDF91CF91B5
:100950001F910F91FF9008951F920F920FB60F9263
:1009600011240F931F932F933F934F935F936F9394
:100970007F938F939F93AF93BF93EF93FF93CF9307
:10098000DF931F92CDB7DEB780916F008D7F80938C
:100990006F00809166028111CBC0789480916602CD
:1009A0008111C6C08091440290914502892B09F4BF
:1009B000BFC08091550290915602A0915702B0910C
:1009C0005802892B8A2B8B2B09F4B2C081E08093CB
:1009D00066022FB7F89480914202909143022FBF94
:1009E00000916102109162022091630230916402D1
:1009F00040915502509156026091570270915802F1
:100A0000041715072607370708F08CC020914E02FF
:100A100030914F028217930708F088C080914C02F2
:100A200090914D024091440250914502480F591F48
:100A300060915D0270915E0280915F029091600210
:100A40008B019C010F5F1F4F2F4F3F4F00935D02A3
:100A500010935E0220935F02309360020E94540460
:100A6000811159C04091610250916202609163020C
:100A7000709164028091550290915602A0915702A4
:100A8000B0915802841B950BA60BB70B20914C021A
:100A900030914D023E5F30934D0220934C025E5FD9
:100AA0006F4F7F4F409361025093620260936302E5
:100AB0007093640220914C0230914D0240914A02A1
:100AC00050914B022417350750F020914C02309181
:100AD0004D02241B350B30934D0220934C0281159F
:100AE00022E09207A105B10540F02FB7F89480915C
:100AF0004202909143029E5F08C02FB7F894409144
:100B0000420250914302840F951F909343028093B9
:100B100042022FBF0BC089830E94320689818093D5
:100B2000650204C0029710F40E9432061092660219
:100B30000F90DF91CF91FF91EF91BF91AF919F9176
:100B40008F917F916F915F914F913F912F911F9165
:100B50000F910F900FBE0F901F901895009769F09E
:100B6000FC0101900020E9F73197AF01481B590BB8
:100B7000BC0182EA91E00C948E0080E090E0089540
:100B80008F929F92AF92BF920F931F93CF93DF9359
:100B9000CDB7DEB7A1970FB6F894DEBF0FBECDBFBD
:100BA00019A2423008F44AE08E010F5D1F4F842ED7
:100BB000912CA12CB12CA50194010E94FC0DE62FD3
:100BC000B901CA0101501109EA3014F4E05D01C015
:100BD000E95CD801EC93232B242B252B61F7C8016A
:100BE0000E94AE05A1960FB6F894DEBF0FBECDBF32
:100BF000DF91CF911F910F91BF90AF909F908F90F9
:100C00000895CF92DF92EF92FF92CF93DF936B0123
:100C10007C01E091A201F091A3010190F081E02D0F
:100C20006DE282EA91E00995EC0166277727CB0116
:100C30006C197D098E099F094AE00E94C0058C0F3E
:100C40009D1FDF91CF91FF90EF90DF90CF9008959F
:100C50009FB7F894EFE6F0E080818E7F8083B09AB2
:100C60009FBF08959FB7F894809140028E7F809334
:100C70004002809140028260809340029FBF1092A8
:100C800043021092420210924D0210924C022091A7
:100C900044023091450230934702209346028091EE
:100CA0004A0290914B02820F931F909349028093C6
:100CB00048028091550290915602A0915702B0913E
:100CC0005802892B8A2B8B2B69F1809159029091C4
:100CD0005A02A0915B02B0915C020090890104C0AD
:100CE000880F991FAA1FBB1F0A94D2F740919A013F
:100CF00050919B0160919C0170919D01840F951F03
:100D0000A61FB71F80935D0290935E02A0935F02BF
:100D1000B09360021092610210926202109263021C
:100D20001092640208958091550290915602A0910C
:100D30005702B0915802892B8A2B8B2B91F080910E
:100D4000400280FD0E9432069FB7F89480914002D5
:100D5000816080934002809140028D7F80934002A9
:100D60009FBF08952F923F924F925F926F927F9212
:100D70008F929F92AF92BF92CF92DF92EF92FF92AB
:100D80000F931F93CF93DF93CDB7DEB72E970FB698
:100D9000F894DEBF0FBECDBF7C01809144029091DC
:100DA0004502892B11F482E8CDC00E9432061092D0
:100DB000550210925602109257021092580240901B
:100DC0007701809176019EEF980F923008F0B9C0BC
:100DD0008090960190909701A0909801B090990111
:100DE000823011F0512C1AC040907B0150907C0150
:100DF000612C712C75E0440C551C661C771C7A958F
:100E0000D1F78FEF480E81E0581E611C711CE9E09C
:100E10007694679457944794EA95D1F78E010F5FC3
:100E20001F4FF80190E28BE0800F91938E13FDCF5E
:100E30009701275F3F4FF8019FEFE91AF90AD701A1
:100E400011978C91803240F4F701DE0119963E0132
:100E50008CE0680E711C15C08E32B1F39FE9980FBB
:100E60009A3108F480528193E216F30629F7ECCF09
:100E70009FE9980F9A3108F480528D93A615B70513
:100E800019F081918032A0F71C867501640165EE2E
:100E9000362E22C04091740150917501C701B601F0
:100EA0000E94540481114EC020E030E0E0917401B2
:100EB000F0917501E20FF31F80818823A1F0853E38
:100EC000A1F4205E3F4F2115B2E03B0779F78FEF89
:100ED000C81AD80AE80AF80AC601881999098415B7
:100EE0009505C0F228C085E32DC0853009F4308215
:100EF000E0917401F0917501E20FF31F2384822DBC
:100F00008871F9F69FE02916E1F2AF011E870D877F
:100F1000DA016D91AD01AD85BE858D91BE87AD873E
:100F200070E0082E000C990B6817790751F6A6158A
:100F3000B70571F70BC0809176018230A1F284E38E
:100F400001C083E38093650280E069C0209254026F
:100F5000258D868D90E0A0E0B0E0DC019927882700
:100F6000922B248D822B278DB22B80935502909348
:100F70005602A0935702B0935802809176018230B6
:100F800059F4838D90E0A0E0B0E0BA2FA92F982FFC
:100F90008827228D822B0DC0238D848990E0A0E0CC
:100FA000B0E0DC0199278827922B228D822B25899E
:100FB000B22B8093590290935A02A0935B02B09394
:100FC0005C028091590290915A02A0915B02B0910B
:100FD0005C020090890104C0880F991FAA1FBB1FE3
:100FE0000A94D2F740919A0150919B0160919C0123
:100FF00070919D01840F951FA61FB71F80935D02FE
:1010000090935E02A0935F02B0936002109261021F
:1010100010926202109263021092640281E02E9696
:101020000FB6F894DEBF0FBECDBFDF91CF911F91F9
:101030000F91FF90EF90DF90CF90BF90AF909F9077
:101040008F907F906F905F904F903F902F9008957A
:10105000CF93DF93E0EBF0E08491ECE9F0E0D49102
:10106000E8E8F0E0C491CC2391F081110E940E03D6
:10107000EC2FF0E0EE0FFF1FE458FF4FA591B49165
:10108000EC91ED2381E090E021F480E002C080E06B
:1010900090E0DF91CF9108950F930FB70F931F93B7
:1010A0000091400200FF8DC003FF04C010E1012742
:1010B00004FF85C0AF93BF93A0914202B091430259
:1010C00007FF1BC0149708F467C0A0934202B093B7
:1010D000430210E010938900A0914602B0914702AC
:1010E0001D91109388001D9110938A001D911093FB
:1010F00047001D91109348002BC005FF15C01297A3
:1011000008F44AC0A0934202B093430210E0109347
:101110008900A0914602B09147021D91109388006A
:101120001D9110938A0014C0119708F435C0A09344
:101130004202B093430210E010938900A09146024E
:10114000B09147021D911093880006FD10938A000C
:101150002F931091480220914902A117B20730F055
:1011600010914A0220914B02A11BB20BA0934602A0
:10117000B0934702B0914102B17061F0B09150025A
:10118000BA9531F4B0E220916F00226020936F0095
:10119000B09350022F9111C00460B0914102B17020
:1011A00061F0B0915002BA9531F4B0E2A0916F00B5
:1011B000A260A0936F00B0935002BF91AF910093D3
:1011C00040021F910F910FBF0F911895CF92DF92A0
:1011D000EF92FF920F931F93E82FF92F05C0015054
:1011E00011092109310961F1908196239417B9F30E
:1011F00005C0015011092109310911F1908196238F
:101200009413F7CFC12CD12CE12CF12C0AC08FEF15
:10121000C81AD80AE80AF80A0C151D052E053F055C
:1012200079F080818623841791F36C2D7D2D8E2D8E
:101230009F2D1F910F91FF90EF90DF90CF90089519
:1012400060E070E080E090E01F910F91FF90EF90E0
:10125000DF90CF900895789484B5826084BD84B582
:10126000816084BD85B5826085BD85B5816085BDA1
:1012700080916E00816080936E0010928100809159
:1012800081008260809381008091810081608093E1
:101290008100809180008160809380008091B10006
:1012A00084608093B1008091B00081608093B00031
:1012B00080917A00846080937A0080917A008260C5
:1012C00080937A0080917A00816080937A00809187
:1012D0007A00806880937A001092C10060E082E01A
:1012E0000E948501E091B201F091B30182E0808318
:1012F000E091AE01F091AF011082E091B001F09168
:10130000B1018FEC80831092BA01E091B601F091A7
:10131000B70186E08083E091B401F091B50180814E
:1013200080618083E091B401F091B5018081886093
:101330008083E091B401F091B50180818068808361
:10134000E091B401F091B50180818F7D80838AE0C6
:1013500080933F0210926602809180008093520237
:1013600080918100809353028091440290914502C4
:10137000892B89F480E094E090934B0280934A0299
:101380000E943E0E9093450280934402892B19F0EF
:1013900081E0809351022091440230914502211551
:1013A000310511F480E8C1C380914A0290914B024B
:1013B000811504E0900710F481E8B7C388279E7F69
:1013C00090934B0280934A02925090934F028093E5
:1013D0004E021092760110926A0110926B011092E7
:1013E0006C0110926D0130937501209374010E947D
:1013F0002002EB011092690161E080913F020E949E
:10140000850161E080913F020E94370360E08CE03B
:101410000E94850161E08DE00E94850161E08BE022
:101420000E94850161E08AE00E94850160E08DE014
:101430000E94370360E08BE00E94370361E08AE09E
:101440000E94370383E58CBD8DB58E7F8DBD0E94D4
:10145000B4031AE08FEF0E942C021150D9F740E03C
:1014600050E0BA0180E00E946703182F813059F0E4
:101470000E9420026C1B7D0B613D774080F30E942F
:10148000B40381E04EC34AEA51E060E070E088E0D6
:101490000E94670382FF03C01093690117C00E9476
:1014A00034020E9434020E94340280FD04C00E9473
:1014B000B40386E036C30E9434028A3A21F00E94C7
:1014C000B40382E02EC382E08093690140E050E0E3
:1014D000BA018BE30E94670310916901123021F079
:1014E000C12CD12C760105C0C12CD12CE12C00E4FB
:1014F000F02E40E050E0BA0187E30E946703B70195
:10150000A60189E20E946703882359F00E94200205
:101510006C1B7D0B613D774060F30E94B40383E058
:1015200000C31230D1F440E050E0BA018AE30E94D7
:101530006703882321F00E94B40384E0F2C20E9472
:101540003402807C803C19F483E0809369010E941E
:1015500034020E9434020E94340240E052E060E013
:1015600070E080E10E946703882321F00E94B403A9
:1015700085E0D7C20E94B4038CB58C7F8CBD8DB53D
:1015800081608DBD409174015091750160E070E003
:10159000CB010E9454048111C4C240917401509146
:1015A0007501FA01E250FE4F8081853509F0B8C21D
:1015B000319680818A3A09F0B3C2FD972081359631
:1015C00030813196808190E0A0E0B0E0DC01992785
:1015D0008827932B32973081832B33963081B32B1E
:1015E00080938E0190938F01A0939001B09391010D
:1015F0003B9780818F7781F495EF920F822F8D7FBB
:10160000843021F0923010F02E3031F4923010F00E
:1016100082E00BC083E009C010928E0110928F010E
:10162000109290011092910181E080937601609177
:101630008E0170918F0180919001909191010E9493
:10164000540481116EC2E0917401F0917501DF01C3
:10165000A250BE4F8C91853511F081E362C2DF014B
:10166000A150BE4F8C918A3AC1F713851111F5CF65
:101670008485823091F78589883F79F705850093C5
:101680007701478550E0542F442786853A01682A20
:1016900070927901609278010023F9F2611471046B
:1016A000E1F2A089A0937A01C289D0E0DC2FCC2797
:1016B0008189C82BD0937C01C0937B01C488D12C35
:1016C000DC2CCC248389B601682BCB0121A1C2A0DC
:1016D000D12CE12CF12C7601DD24CC24D22A20A1BE
:1016E000C22A23A1F22A009719F06C01E12CF12CF7
:1016F000C0927D01D0927E01E0927F01F092800144
:10170000678970E0762F662786899B01282BC9019F
:1017100025A186A0912CA12CB12C540199248824B8
:10172000922A24A1822A27A1B22A009721F09C01A3
:1017300040E050E002C0A501940120938101309364
:101740008201409383015093840180908E01909098
:101750008F01A0909001B0909101C501B401660D78
:10176000771D811D911D2B013C01609392017093A7
:1017700093018093940190939501B0E00E941E0E16
:10178000460E571E681E791E409296015092970190
:101790006092980170929901202E312CAE0160E088
:1017A00070E0C5E0440F551F661F771FCA95D1F73B
:1017B00041505E4F6F4F7F4FD9E0769567955795B3
:1017C0004795DA95D1F79101220F331FC901330FE5
:1017D000AA0BBB0B481B590B6A0B7B0B440E551E07
:1017E000661E771E40929A0150929B0160929C0166
:1017F00070929D0141E050E0A12F9A01012E02C09C
:10180000220F331F0A94E2F72216330641F0212FEC
:101810001F5F283089F789E0809389011ECF1093DC
:101820008901C80CD91CEA1CFB1CC418D508E608A1
:10183000F70804C0F694E794D794C7941A95D2F7A2
:10184000C0928A01D0928B01E0928C01F0928D01BE
:1018500075EFC7167FE0D706E104F10420F410927B
:10186000760182E35EC185EFC8168FEFD806E104EA
:10187000F10440F482E08093760188EF9FEFA0E0CE
:10188000B0E029C085A546A550E060E070E0BA014F
:1018900055274427582B84A5482B87A5782B8A01E8
:1018A0009B0104C0000F111F221F331FAA95D2F7FE
:1018B000400E511E621E731E409296015092970177
:1018C000609298017092990183E08093760188EF8D
:1018D0009FEFAFEFBFE080939E0190939F01A09395
:1018E000A001B093A10110924002109241020E9407
:1018F0003206809141028160809341020E94280655
:1019000060E089E00E94370361E089E00E94850180
:1019100081E88093800089E08093810010928900A3
:1019200080E58093880080938A009FB7F894809127
:101930006F00816080936F00B09A9FBF1092550234
:101940001092560210925702109258028EE392E0C3
:101950009093010180930001809169008C7F8260E7
:1019600080936900E89A9DE8E92E90E0F92E2CE931
:10197000C22E20E0D22E38E8A32E30E0B32E44E071
:10198000842E912CC1E0D0E05EE3652E52E0752EEE
:1019900068EB7BE080E090E00E94E60180917201BC
:1019A0009091730197FD41C0E898F0920101E09297
:1019B0000001F6016491F5018491E82FF0E0EE0F4B
:1019C000FF1FE458FF4F8591949100EC16EC2DE237
:1019D00030E040E00E94E60861157105810591053F
:1019E00039F0DC01CB010196A11DB11DBF7003C010
:1019F00080E090E0DC019093710180937001809110
:101A0000700190917101892B81F40E942808892B23
:101A100021F0D0937301C09372010E942808892B92
:101A200021F4909273018092720186E291E00E940B
:101A3000AE056091720170917301072E000C880B46
:101A4000990B97FF03C00E94010603C04AE00E9461
:101A5000C00583E291E00E94AE05809172019091F1
:101A60007301019739F480916E0190916F01019794
:101A700009F45EC08091720190917301029791F414
:101A80008CE291E00E94B2060E94930660E47FE13E
:101A900080E090E00E94E6010E943206D0936F0140
:101AA000C0936E018091720190917301039791F43C
:101AB00086E391E00E94B2060E94930660E47FE113
:101AC00080E090E00E94E6010E943206D0936F0110
:101AD000C0936E018091720190917301049791F40B
:101AE00081E491E00E94B2060E94930660E47FE1E7
:101AF00080E090E00E94E6010E943206D0936F01E0
:101B0000C0936E01709201016092000180916900A2
:101B10008C7F826080936900E89A0E947B0138CFB5
:101B200080E31092450210924402809365020ECF2A
:101B30008CE491E00E94B2060E94930660E47FE18B
:101B400080E090E00E94E6010E94320610926F0150
:101B500010926E018FCF0E9432060E9428068FB726
:101B6000F89490915202909380008FBF809153021D
:101B70008093810080915102882341F0109251029C
:101B800080914402909145020C94D30E0895E2EAAC
:101B9000F1E01382128288EE93E0A0E0B0E084834B
:101BA0009583A683B7838EE091E09183808385EC53
:101BB00090E09587848784EC90E09787868780EC17
:101BC00090E0918B808B81EC90E0938B828B82EC08
:101BD00090E0958B848B86EC90E0978B868B118EB2
:101BE000128E138E148EE0E4F2E015821482118AB4
:101BF00084E080933F020895A1E21A2EAA1BBB1B2A
:101C0000FD010DC0AA1FBB1FEE1FFF1FA217B307C8
:101C1000E407F50720F0A21BB30BE40BF50B661FDE
:101C2000771F881F991F1A9469F7609570958095A2
:101C300090959B01AC01BD01CF0108950E942F0E2C
:101C4000A59F900DB49F900DA49F800D911D112410
:101C50000895EE0FFF1F0590F491E02D0994A29FC7
:101C6000B001B39FC001A39F700D811D1124911D70
:101C7000B29F700D811D1124911D0895CF93DF93A4
:101C80008230910510F482E090E0E0916902F091D9
:101C90006A0220E030E0C0E0D0E0309711F14081EE
:101CA000518148175907C0F04817590761F48281DC
:101CB0009381209719F09B838A832BC090936A02AB
:101CC0008093690226C02115310519F04217530788
:101CD00018F49A01BE01DF01EF010280F381E02DCB
:101CE000DCCF2115310509F1281B390B24303105D2
:101CF00090F412968D919C9113976115710521F0C6
:101D0000FB019383828304C090936A0280936902EB
:101D1000FD01329644C0FD01E20FF31F81939193C0
:101D2000225031092D933C933AC0209167023091A3
:101D30006802232B41F42091060130910701309372
:101D4000680220936702209104013091050121155A
:101D5000310541F42DB73EB740910801509109017A
:101D6000241B350BE0916702F0916802E217F3073C
:101D7000A0F42E1B3F0B2817390778F0AC014E5FFB
:101D80005F4F2417350748F04E0F5F1F50936802CE
:101D9000409367028193919302C0E0E0F0E0CF01AD
:101DA000DF91CF9108950F931F93CF93DF93009707
:101DB00009F48CC0FC0132971382128200916902EF
:101DC00010916A020115110581F420813181820F81
:101DD000931F20916702309168022817390779F51F
:101DE000F0936802E093670271C0D80140E050E0D0
:101DF000AE17BF0750F412962D913C911397AD0189
:101E00002115310509F1D901F3CF9D01DA013383A1
:101E1000228360817181860F971F8217930769F46F
:101E2000EC0128813981260F371F2E5F3F4F318308
:101E300020838A819B8193838283452B29F4F093AD
:101E40006A02E093690242C01396FC93EE931297E4
:101E5000ED01499159919E01240F351FE217F307B7
:101E600071F480819181840F951F029611969C9345
:101E70008E938281938113969C938E931297E0E0C8
:101E8000F0E0D80112968D919C911397009719F06C
:101E9000F8018C01F6CF8D919C9198012E5F3F4FF8
:101EA000820F931F2091670230916802281739072B
:101EB00069F4309729F410926A021092690202C004
:101EC000138212821093680200936702DF91CF9110
:101ED0001F910F91089581E090E0F8940C94700F99
:101EE00010E0C2E6D0E004C0FE010E94290E219657
:0A1EF000C336D107C9F7F894FFCFFD
:101EFA008D008D0000006B028000000000001201BE
:101F0A008E00DB00B900CD00590166616C6C696E08
:101F1A00673A000D0A006D6F64653A007570736F59
:101F2A006E2E776176007570736C6F772E77617697
:101F3A0000757073656E642E776176007570736FC5
:081F4A0066662E776176000047
:107E0000112484B714BE81FFF0D085E080938100F7
:107E100082E08093C00088E18093C10086E0809377
:107E2000C20080E18093C4008EE0C9D0259A86E02C
:107E300020E33CEF91E0309385002093840096BBD3
:107E4000B09BFECF1D9AA8958150A9F7CC24DD24C4
:107E500088248394B5E0AB2EA1E19A2EF3E0BF2EE7
:107E6000A2D0813461F49FD0082FAFD0023811F036
:107E7000013811F484E001C083E08DD089C08234E0
:107E800011F484E103C0853419F485E0A6D080C0E4
:107E9000853579F488D0E82EFF2485D0082F10E0AE
:107EA000102F00270E291F29000F111F8ED06801E7
:107EB0006FC0863521F484E090D080E0DECF843638
:107EC00009F040C070D06FD0082F6DD080E0C81688
:107ED00080E7D80618F4F601B7BEE895C0E0D1E017
:107EE00062D089930C17E1F7F0E0CF16F0E7DF06D8
:107EF00018F0F601B7BEE89568D007B600FCFDCFD4
:107F0000A601A0E0B1E02C9130E011968C91119780
:107F100090E0982F8827822B932B1296FA010C0160
:107F200087BEE89511244E5F5F4FF1E0A038BF0790
:107F300051F7F601A7BEE89507B600FCFDCF97BE46
:107F4000E89526C08437B1F42ED02DD0F82E2BD052
:107F50003CD0F601EF2C8F010F5F1F4F84911BD097
:107F6000EA94F801C1F70894C11CD11CFA94CF0C13
:107F7000D11C0EC0853739F428D08EE10CD085E9AC
:107F80000AD08FE07ACF813511F488E018D01DD067
:107F900080E101D065CF982F8091C00085FFFCCF94
:107FA0009093C60008958091C00087FFFCCF809118
:107FB000C00084FD01C0A8958091C6000895E0E648
:107FC000F0E098E1908380830895EDDF803219F02E
:107FD00088E0F5DFFFCF84E1DECF1F93182FE3DFCA
:107FE0001150E9F7F2DF1F91089580E0E8DFEE27F6
:047FF000FF270994CA
:027FFE00040479
:0400000300007E007B
:00000001FF
